{
  "contractName": "Investment",
  "abi": [
    {
      "inputs": [],
      "stateMutability": "nonpayable",
      "type": "constructor"
    },
    {
      "anonymous": false,
      "inputs": [
        {
          "indexed": true,
          "internalType": "address",
          "name": "from",
          "type": "address"
        },
        {
          "indexed": false,
          "internalType": "uint256",
          "name": "amount",
          "type": "uint256"
        }
      ],
      "name": "CheckBalance",
      "type": "event"
    },
    {
      "inputs": [],
      "name": "getBalanceAmount",
      "outputs": [
        {
          "internalType": "uint256",
          "name": "",
          "type": "uint256"
        }
      ],
      "stateMutability": "view",
      "type": "function"
    },
    {
      "inputs": [],
      "name": "getDepositAmount",
      "outputs": [
        {
          "internalType": "uint256",
          "name": "",
          "type": "uint256"
        }
      ],
      "stateMutability": "view",
      "type": "function"
    },
    {
      "inputs": [
        {
          "internalType": "uint256",
          "name": "amount",
          "type": "uint256"
        }
      ],
      "name": "addDepositAmount",
      "outputs": [],
      "stateMutability": "nonpayable",
      "type": "function"
    },
    {
      "inputs": [],
      "name": "withdrawBalance",
      "outputs": [],
      "stateMutability": "nonpayable",
      "type": "function"
    }
  ],
  "bytecode": "0x608060405234801561001057600080fd5b5061001f61009160201b60201c565b6000819055506000600181905550600c600281905550600380819055503373ffffffffffffffffffffffffffffffffffffffff167f298d723426e7f22fbb65ea5f84ec8606ff95165decb6598d73adcd29394b7bdb60005460405161008491906100db565b60405180910390a2610156565b6000662386f26fc100003373ffffffffffffffffffffffffffffffffffffffff16316100bd9190610125565b905090565b6000819050919050565b6100d5816100c2565b82525050565b60006020820190506100f060008301846100cc565b92915050565b7f4e487b7100000000000000000000000000000000000000000000000000000000600052601260045260246000fd5b6000610130826100c2565b915061013b836100c2565b92508261014b5761014a6100f6565b5b828204905092915050565b6102e5806101656000396000f3fe608060405234801561001057600080fd5b506004361061004c5760003560e01c806358d3e10f146100515780635fd8c7101461006f5780637d96f69314610079578063a59c124514610097575b600080fd5b6100596100b3565b6040516100669190610151565b60405180910390f35b6100776100e4565b005b6100816100f5565b60405161008e9190610151565b60405180910390f35b6100b160048036038101906100ac919061019d565b6100ff565b005b6000662386f26fc100003373ffffffffffffffffffffffffffffffffffffffff16316100df9190610228565b905090565b600080819055506000600181905550565b6000600154905090565b8060015461010d9190610259565b600181905550600254600154106101355760035460015461012e9190610259565b6000819055505b50565b6000819050919050565b61014b81610138565b82525050565b60006020820190506101666000830184610142565b92915050565b600080fd5b61017a81610138565b811461018557600080fd5b50565b60008135905061019781610171565b92915050565b6000602082840312156101b3576101b261016c565b5b60006101c184828501610188565b91505092915050565b7f4e487b7100000000000000000000000000000000000000000000000000000000600052601260045260246000fd5b7f4e487b7100000000000000000000000000000000000000000000000000000000600052601160045260246000fd5b600061023382610138565b915061023e83610138565b92508261024e5761024d6101ca565b5b828204905092915050565b600061026482610138565b915061026f83610138565b9250827fffffffffffffffffffffffffffffffffffffffffffffffffffffffffffffffff038211156102a4576102a36101f9565b5b82820190509291505056fea264697066735822122061bc2921c8d10d0ecc98ed50a6685088da36df082bf4efc40ea4c8ecb80f102664736f6c634300080c0033",
  "immutableReferences": {},
  "source": "// SPDX-License-Identifier: GPL-3.0\npragma solidity ^0.8.0;\n\ncontract Investment {\n    event CheckBalance(address indexed from, uint256 amount);\n    // amount returned to user\n    uint256 balanceAmount;\n    // amount deposited by user\n    uint256 depositAmount;\n    // minimum amount to be deposited by user\n    uint256 thresholdAmount;\n    // amount to be returned in addition to depositAmount to user\n    uint256 returnOnInvestment;\n\n    constructor() public {\n        balanceAmount = getBalanceAmount();\n        depositAmount = 0;\n        thresholdAmount = 12;\n        returnOnInvestment = 3;\n\n        emit CheckBalance(msg.sender, balanceAmount );\n    }\n\n    // read operation\n    function getBalanceAmount() public view returns (uint256) {\n        return msg.sender.balance/(1e16);\n    }\n\n    // read operation\n    function getDepositAmount() public view returns (uint256) {\n        return depositAmount;\n    }\n\n    // write operation\n    function addDepositAmount(uint256 amount) public {\n        depositAmount = depositAmount + amount;\n\n        if (depositAmount >= thresholdAmount) {\n            balanceAmount = depositAmount + returnOnInvestment;\n        }\n    }\n\n    // write function\n    function withdrawBalance() public {\n        balanceAmount = 0;\n        depositAmount = 0;\n    }\n}\n",
  "sourcePath": "/Users/norman/Development/blockchain/flutter/smart_contract/contracts/Investment.sol",
  "compiler": {
    "name": "solc",
    "version": "0.8.12+commit.f00d7308.Emscripten.clang"
  },
  "schemaVersion": "3.4.6",
  "updatedAt": "2022-04-16T01:25:13.320Z",
  "devdoc": {
    "kind": "dev",
    "methods": {},
    "version": 1
  },
  "userdoc": {
    "kind": "user",
    "methods": {},
    "version": 1
  }
}